:030000000200D427
:0C00D400787FE4F6D8FD75810902000376
:1000A500EF1F70011E144E6013E4FCFDD3ED945850
:0C00B500EC940250EB0DBD00010C80F03B
:0100C100221C
:10005D007C037DE81200C2EF1F70011E144E601369
:10006D00E4FAFBD3EB9458EA940250EB0BBB00017E
:03007D000A80F006
:01008000225D
:100081007CEA7D601200C2EF1F70011E144E6013E6
:10009100E4FAFBD3EB9458EA940250EB0BBB00015A
:0300A1000A80F0E2
:0100A4002239
:10000300E4F508F509D2B5D2B420B5357F327E00C8
:100013001200A520B50AD2B10509E5097002050849
:10002300E509640145087006D2B2C2B3800CE50944
:1000330064024508700BD2B3C2B27FF47E01120092
:10004300A520B40820B405E4F508F509E509450839
:0A00530070B3C2B1D2B2D2B380ABD9
:1000C200EF8DF0A4A8F0CF8CF0A428CE8DF0A42E52
:0200D200FE220C
:00000001FF
